:100000004EC068C067C066C065C04EC163C062C0F4
:1000100061C060C05FC05EC05DC05CC05BC000000E
:100020000000000001000100010000082080010123
:1000300001012008088210841084102411841111F9
:1000400011111191241149124912525222252525CC
:1000500025252255522555255525555555255555A6
:100060005555555557555557555755575757575730
:1000700057577577575777757757777777577777D4
:100080007777777777F777F777F777F7F7F7F7F700
:10009000F7F7F7F7FFF7F7FFFFF7000000F011247D
:1000A0001FBECFE5D2E0DEBFCDBF10E0A0E6B0E0DE
:1000B000ECE1F4E002C005900D92A436B107D9F747
:1000C00010E0A4E6B0E001C01D92AC38B107E1F742
:1000D00071D0A2C195CFCF93DF93F894C82FD0E011
:1000E000DE01A058BF4F8C91282F30E0220F331F24
:1000F000220F331F225E3F4FF90185919591A59103
:10010000B491CC0FDD1FCC0FDD1FC059DF4F8883AA
:100110009983AA83BB837894DF91CF910895E82FC8
:10012000F0E0EE0FFF1FEC57FF4F208131818081FF
:1001300091812817390711F020813181C901089573
:10014000E82FF894F0E0EE0FFF1FEC57FF4F71839C
:10015000608378940895EF92FF920F931F937B0131
:100160008C016091600070916100809162009091BB
:1001700063002DE036E649E150E013D1615A7C403E
:100180008149934C6093600070936100809362009A
:1001900090936300A80197011DD19B01AC012F5FD3
:1001A0003F4F4F4F5F4FB901CA011F910F91FF9011
:1001B000EF9008951F93CF93DF9382E083BF89BFB1
:1001C00088B3807F88BB87B38F6087BBA0E8B0E02F
:1001D00080E790E0C4E6D0E0EEE1F0E025913591D3
:1001E0004591549168EC70E01D92F894FC012193C4
:1001F000319341935193CF01789469937993F0E0CF
:10020000A438BF0789F7789410E0C12FD0E0FE0131
:10021000EE0FFF1FEC57FF4F2081318180819181CC
:100220002817390711F020813181232B09F037C0BD
:1002300064E170E080E090E08EDF655F7F4F8F4F7C
:100240009F4FFE01E058FF4F6083F894E62FF0E0E7
:10025000EE0FFF1FEE0FFF1FE25EFF4F859195919E
:10026000A591B491FE01EE0FFF1FEE0FFF1FE059A5
:10027000FF4F80839183A283B38378946EEE72E004
:1002800080E090E068DF66507F4F8F4F9F4FF8947B
:10029000CC0FDD1FCC57DF4F7983688378941F5FC5
:1002A000143008F0B1CFB1CF1F920F920FB60F925A
:1002B0001124DF92EF92FF920F931F932F933F939E
:1002C0004F935F936F937F938F939F93AF93BF935E
:1002D000CF93DF93EF93FF93C0E7D0E0DD2460E09E
:1002E00070E088819981AA81BB81F1E0EF2EF12C29
:1002F000012D112DE822F9220A231B23A8019701C1
:10030000062E04C0220F331F441F551F0A94D2F734
:10031000D22AB695A7959795879588839983AA83BE
:10032000BB83E114F1040105110541F080509040B8
:10033000A040B04888839983AA83BB83FB01EE0F5A
:10034000FF1FEC57FF4F80819181892B29F080811D
:1003500091810197918380836F5F7F4F24966430F2
:10036000710509F0BECF88B3807F88BB88B3D82AD7
:10037000D8BAFF91EF91DF91CF91BF91AF919F914B
:100380008F917F916F915F914F913F912F911F912D
:100390000F91FF90EF90DF900F900FBE0F901F9086
:1003A0001895FF27EE27BB27AA2760FF04C0A20FDE
:1003B000B31FE41FF51F220F331F441F551F9695CF
:1003C00087957795679589F70097760771F7CF013D
:1003D000BD010895A1E21A2EAA1BBB1BFD010DC091
:1003E000AA1FBB1FEE1FFF1FA217B307E407F507E5
:1003F00020F0A21BB30BE40BF50B661F771F881FC1
:10040000991F1A9469F760957095809590959B0156
:0C041000AC01BD01CF010895F894FFCFAE
:04041C004E61BC0071
:00000001FF
