:1000000009C00EC00DC00CC00BC00AC009C008C09A
:1000100007C006C011241FBECFE9CDBF02D040C02B
:10002000EFCF87EF87BB88B318BA30E02AC0C39AF6
:1000300080E002C000008F5F8917E0F3C398292F8A
:10004000209580E002C000008F5F8217E0F39F5F81
:100050009F3F69F790E0C39880E002C000008F5F87
:100060008917E0F3C39A292F209580E002C0000091
:100070008F5F8217E0F39F5F9F3F69F73F5F3A30E2
:1000800011F090E0D4CF88B318BA80E385BF88958B
:10009000089590E002C000009F5F9817E0F3089574
:0400A000F894FFCF02
:00000001FF
