:1000000009C00EC00DC00CC00BC00AC009C008C09A
:1000100007C006C011241FBECFE9CDBF3CD0D9C058
:10002000EFCF20E030E003C000002F5F3F4F2817E4
:100030003907D0F30895FC01862F90E064E670E064
:10004000A2D09C01CF0162E370E0AFD0C901ADD076
:10005000CB014FEF15C048BB20E030E003C00000EB
:100060002F5F3F4F2E173F07D0F318BA20E030E044
:1000700003C000002F5F3F4F2E173F07D0F30197BB
:10008000009749F780E090E0000001962FEF8F3F46
:100090009207D1F708951F9380E090E00000019649
:1000A0002FEF8F3F9207D1F71FEF17BB8AE194E044
:1000B00068E2C1DF8AE194E06DE0BDDF87EA93E0AA
:1000C00067E3B9DF8AE194E067E3B5DF82E193E0BB
:1000D00067E3B1DF81E493E06EE6ADDF8AE194E0AF
:1000E00068E2A9DF8AE194E06DE0A5DF87EA93E0AA
:1000F00067E3A1DF8AE194E067E39DDF8DEB92E0A7
:1001000067E399DF82E193E06EE695DF8AE194E0B0
:1001100068E291DF8AE194E06DE08DDF8CE092E0AF
:1001200067E389DF80E792E067E385DF82E193E0C0
:1001300067E381DF81E493E067E37DDF87EA93E0B3
:100140006EE679DF8CE492E068E275DF8CE492E0A1
:100150006DE071DF80E792E067E36DDF82E193E0BD
:1001600067E369DF8DEB92E067E365DF82E193E0AF
:100170006EE661DF18BA17BB80E385BF889580E023
:1001800090E01F9108955527002480FF02C0060EBD
:10019000571F660F771F6115710521F0969587959A
:1001A000009799F7952F802D0895AA1BBB1B51E14D
:1001B00007C0AA1FBB1FA617B70710F0A61BB70BD7
:1001C000881F991F5A95A9F780959095BC01CD017C
:0601D0000895F894FFCF32
:00000001FF
